8=FIX.4.2|9=67|35=A|34=1|49=client|52=20181212-13:49:18.240|56=server|98=0|108=30|10=024|8=FIX.4.2|9=112|35=D|34=2|49=client|52=20181212-13:49:19.168|56=server|11=342|21=1|40=1|54=1|55=6758.T|60=20181212-19:19:19.167|10=206|8=FIX.4.2|9=55|35=0|34=3|49=client|52=20181212-13:49:50.091|56=server|10=237|8=FIX.4.2|9=55|35=0|34=4|49=client|52=20181212-13:50:20.091|56=server|10=227|8=FIX.4.2|9=55|35=0|34=5|49=client|52=20181212-13:50:50.091|56=server|10=231|8=FIX.4.2|9=55|35=0|34=6|49=client|52=20181212-13:51:20.091|56=server|10=230|8=FIX.4.2|9=55|35=0|34=7|49=client|52=20181212-13:51:50.090|56=server|10=233|8=FIX.4.2|9=55|35=0|34=8|49=client|52=20181212-13:52:20.091|56=server|10=233|8=FIX.4.2|9=55|35=0|34=9|49=client|52=20181212-13:52:50.091|56=server|10=237|8=FIX.4.2|9=56|35=0|34=10|49=client|52=20181212-13:53:20.106|56=server|10=017|8=FIX.4.2|9=56|35=0|34=11|49=client|52=20181212-13:53:51.092|56=server|10=026|8=FIX.4.2|9=56|35=0|34=12|49=client|52=20181212-13:54:21.090|56=server|10=023|8=FIX.4.2|9=56|35=0|34=13|49=client|52=20181212-13:54:51.090|56=server|10=027|8=FIX.4.2|9=56|35=0|34=14|49=client|52=20181212-13:55:21.095|56=server|10=031|8=FIX.4.2|9=56|35=0|34=15|49=client|52=20181212-13:55:51.091|56=server|10=031|8=FIX.4.2|9=56|35=0|34=16|49=client|52=20181212-13:56:21.091|56=server|10=030|8=FIX.4.2|9=56|35=0|34=17|49=client|52=20181212-13:56:51.091|56=server|10=034|8=FIX.4.2|9=56|35=0|34=18|49=client|52=20181212-13:57:21.090|56=server|10=032|8=FIX.4.2|9=56|35=0|34=19|49=client|52=20181212-13:57:51.090|56=server|10=036|8=FIX.4.2|9=56|35=0|34=20|49=client|52=20181212-13:58:21.091|56=server|10=027|8=FIX.4.2|9=56|35=0|34=21|49=client|52=20181212-13:58:51.091|56=server|10=031|8=FIX.4.2|9=56|35=0|34=22|49=client|52=20181212-13:59:21.091|56=server|10=030|8=FIX.4.2|9=56|35=0|34=23|49=client|52=20181212-13:59:51.090|56=server|10=033|8=FIX.4.2|9=56|35=0|34=24|49=client|52=20181212-14:00:21.092|56=server|10=020|8=FIX.4.2|9=56|35=0|34=25|49=client|52=20181212-14:00:51.091|56=server|10=023|8=FIX.4.2|9=56|35=0|34=26|49=client|52=20181212-14:01:21.091|56=server|10=022|8=FIX.4.2|9=56|35=0|34=27|49=client|52=20181212-14:01:51.091|56=server|10=026|8=FIX.4.2|9=56|35=0|34=28|49=client|52=20181212-14:02:21.090|56=server|10=024|8=FIX.4.2|9=56|35=0|34=29|49=client|52=20181212-14:02:51.090|56=server|10=028|8=FIX.4.2|9=56|35=0|34=30|49=client|52=20181212-14:03:21.091|56=server|10=019|8=FIX.4.2|9=56|35=0|34=31|49=client|52=20181212-14:03:51.091|56=server|10=023|