8=FIX.4.2|9=67|35=A|34=1|49=server|52=20181212-13:49:18.540|56=client|98=0|108=30|10=027|8=FIX.4.2|9=55|35=0|34=2|49=server|52=20181212-13:49:48.881|56=client|10=250|8=FIX.4.2|9=55|35=0|34=3|49=server|52=20181212-13:50:18.879|56=client|10=247|8=FIX.4.2|9=55|35=0|34=4|49=server|52=20181212-13:50:48.879|56=client|10=251|8=FIX.4.2|9=55|35=0|34=5|49=server|52=20181212-13:51:18.879|56=client|10=250|8=FIX.4.2|9=55|35=0|34=6|49=server|52=20181212-13:51:48.879|56=client|10=254|8=FIX.4.2|9=55|35=0|34=7|49=server|52=20181212-13:52:18.879|56=client|10=253|8=FIX.4.2|9=55|35=0|34=8|49=server|52=20181212-13:52:48.879|56=client|10=001|8=FIX.4.2|9=55|35=0|34=9|49=server|52=20181212-13:53:18.879|56=client|10=000|8=FIX.4.2|9=56|35=0|34=10|49=server|52=20181212-13:53:48.878|56=client|10=043|8=FIX.4.2|9=56|35=0|34=11|49=server|52=20181212-13:54:18.879|56=client|10=043|8=FIX.4.2|9=56|35=0|34=12|49=server|52=20181212-13:54:48.879|56=client|10=047|8=FIX.4.2|9=56|35=0|34=13|49=server|52=20181212-13:55:18.878|56=client|10=045|8=FIX.4.2|9=56|35=0|34=14|49=server|52=20181212-13:55:48.879|56=client|10=050|8=FIX.4.2|9=56|35=0|34=15|49=server|52=20181212-13:56:18.879|56=client|10=049|8=FIX.4.2|9=56|35=0|34=16|49=server|52=20181212-13:56:48.879|56=client|10=053|8=FIX.4.2|9=56|35=0|34=17|49=server|52=20181212-13:57:18.879|56=client|10=052|8=FIX.4.2|9=56|35=0|34=18|49=server|52=20181212-13:57:48.879|56=client|10=056|8=FIX.4.2|9=56|35=0|34=19|49=server|52=20181212-13:58:18.879|56=client|10=055|8=FIX.4.2|9=56|35=0|34=20|49=server|52=20181212-13:58:48.879|56=client|10=050|8=FIX.4.2|9=56|35=0|34=21|49=server|52=20181212-13:59:18.879|56=client|10=049|8=FIX.4.2|9=56|35=0|34=22|49=server|52=20181212-13:59:48.882|56=client|10=047|8=FIX.4.2|9=56|35=0|34=23|49=server|52=20181212-14:00:18.878|56=client|10=037|8=FIX.4.2|9=56|35=0|34=24|49=server|52=20181212-14:00:48.879|56=client|10=042|8=FIX.4.2|9=56|35=0|34=25|49=server|52=20181212-14:01:18.879|56=client|10=041|8=FIX.4.2|9=56|35=0|34=26|49=server|52=20181212-14:01:48.879|56=client|10=045|8=FIX.4.2|9=56|35=0|34=27|49=server|52=20181212-14:02:18.878|56=client|10=043|8=FIX.4.2|9=56|35=0|34=28|49=server|52=20181212-14:02:48.879|56=client|10=048|8=FIX.4.2|9=56|35=0|34=29|49=server|52=20181212-14:03:18.879|56=client|10=047|8=FIX.4.2|9=56|35=0|34=30|49=server|52=20181212-14:03:48.879|56=client|10=042|